{
  "contractName": "Appointment",
  "abi": [
    {
      "inputs": [
        {
          "internalType": "uint256",
          "name": "_maxAppointments",
          "type": "uint256"
        },
        {
          "internalType": "uint256",
          "name": "_fees",
          "type": "uint256"
        }
      ],
      "stateMutability": "nonpayable",
      "type": "constructor"
    },
    {
      "anonymous": false,
      "inputs": [
        {
          "indexed": true,
          "internalType": "address",
          "name": "paitent",
          "type": "address"
        },
        {
          "indexed": false,
          "internalType": "uint256",
          "name": "slot",
          "type": "uint256"
        }
      ],
      "name": "CloseAppointment",
      "type": "event"
    },
    {
      "anonymous": false,
      "inputs": [
        {
          "indexed": true,
          "internalType": "address",
          "name": "paitent",
          "type": "address"
        },
        {
          "indexed": false,
          "internalType": "uint256",
          "name": "slot",
          "type": "uint256"
        }
      ],
      "name": "CreateAppointment",
      "type": "event"
    },
    {
      "anonymous": false,
      "inputs": [
        {
          "indexed": true,
          "internalType": "address",
          "name": "patient",
          "type": "address"
        },
        {
          "indexed": false,
          "internalType": "uint256",
          "name": "slot",
          "type": "uint256"
        },
        {
          "indexed": false,
          "internalType": "string",
          "name": "zoomLink",
          "type": "string"
        }
      ],
      "name": "MarkedInProgress",
      "type": "event"
    },
    {
      "inputs": [],
      "name": "appointmentCount",
      "outputs": [
        {
          "internalType": "uint256",
          "name": "",
          "type": "uint256"
        }
      ],
      "stateMutability": "view",
      "type": "function",
      "constant": true
    },
    {
      "inputs": [
        {
          "internalType": "uint256",
          "name": "",
          "type": "uint256"
        }
      ],
      "name": "appointments",
      "outputs": [
        {
          "internalType": "uint256",
          "name": "slot",
          "type": "uint256"
        },
        {
          "internalType": "address",
          "name": "patient",
          "type": "address"
        },
        {
          "internalType": "string",
          "name": "zoomLink",
          "type": "string"
        },
        {
          "internalType": "enum Appointment.SlotStatus",
          "name": "status",
          "type": "uint8"
        }
      ],
      "stateMutability": "view",
      "type": "function",
      "constant": true
    },
    {
      "inputs": [],
      "name": "currentSlotInProcess",
      "outputs": [
        {
          "internalType": "uint256",
          "name": "",
          "type": "uint256"
        }
      ],
      "stateMutability": "view",
      "type": "function",
      "constant": true
    },
    {
      "inputs": [],
      "name": "fees",
      "outputs": [
        {
          "internalType": "uint256",
          "name": "",
          "type": "uint256"
        }
      ],
      "stateMutability": "view",
      "type": "function",
      "constant": true
    },
    {
      "inputs": [],
      "name": "maxAppointments",
      "outputs": [
        {
          "internalType": "uint256",
          "name": "",
          "type": "uint256"
        }
      ],
      "stateMutability": "view",
      "type": "function",
      "constant": true
    },
    {
      "inputs": [],
      "name": "name",
      "outputs": [
        {
          "internalType": "string",
          "name": "",
          "type": "string"
        }
      ],
      "stateMutability": "view",
      "type": "function",
      "constant": true
    },
    {
      "inputs": [
        {
          "internalType": "uint256",
          "name": "_fees",
          "type": "uint256"
        }
      ],
      "name": "setfees",
      "outputs": [],
      "stateMutability": "nonpayable",
      "type": "function"
    },
    {
      "inputs": [],
      "name": "isAdmin",
      "outputs": [
        {
          "internalType": "bool",
          "name": "",
          "type": "bool"
        }
      ],
      "stateMutability": "view",
      "type": "function",
      "constant": true
    },
    {
      "inputs": [],
      "name": "createAppointment",
      "outputs": [],
      "stateMutability": "payable",
      "type": "function",
      "payable": true
    },
    {
      "inputs": [],
      "name": "getSlot",
      "outputs": [
        {
          "internalType": "uint256",
          "name": "",
          "type": "uint256"
        }
      ],
      "stateMutability": "view",
      "type": "function",
      "constant": true
    },
    {
      "inputs": [
        {
          "internalType": "address",
          "name": "_patient",
          "type": "address"
        },
        {
          "internalType": "uint256",
          "name": "_slot",
          "type": "uint256"
        },
        {
          "internalType": "string",
          "name": "_zoomLink",
          "type": "string"
        }
      ],
      "name": "markInProgress",
      "outputs": [],
      "stateMutability": "nonpayable",
      "type": "function"
    },
    {
      "inputs": [
        {
          "internalType": "address",
          "name": "_patient",
          "type": "address"
        },
        {
          "internalType": "uint256",
          "name": "_slot",
          "type": "uint256"
        }
      ],
      "name": "closeAppointment",
      "outputs": [],
      "stateMutability": "nonpayable",
      "type": "function"
    },
    {
      "inputs": [],
      "name": "completeAppointments",
      "outputs": [],
      "stateMutability": "nonpayable",
      "type": "function"
    }
  ],
  "bytecode": "0x60806040526040518060400160405280601481526020017f446f63746f722773204170706f696e746d656e740000000000000000000000008152506000908051906020019062000051929190620000f7565b503480156200005f57600080fd5b506040516200141a3803806200141a833981810160405260408110156200008557600080fd5b81019080805190602001909291908051906020019092919050505033600160006101000a81548173ffffffffffffffffffffffffffffffffffffffff021916908373ffffffffffffffffffffffffffffffffffffffff16021790555081600281905550806003819055505050620001ad565b828054600181600116156101000203166002900490600052602060002090601f0160209004810192826200012f57600085556200017b565b82601f106200014a57805160ff19168380011785556200017b565b828001600101855582156200017b579182015b828111156200017a5782518255916020019190600101906200015d565b5b5090506200018a91906200018e565b5090565b5b80821115620001a95760008160009055506001016200018f565b5090565b61125d80620001bd6000396000f3fe6080604052600436106100c25760003560e01c80637ccaf70f1161007f578063ce5802bf11610059578063ce5802bf1461035f578063d90a799314610451578063eebc3fb2146104ac578063fd469e5a146104d7576100c2565b80637ccaf70f146102dc5780639af1d35a14610307578063b6db75a014610332576100c2565b806306fdde03146100c757806312dc901314610157578063397e0ca41461024157806340285ad51461024b5780634a5eeca2146102865780636c877c84146102b1575b600080fd5b3480156100d357600080fd5b506100dc6104ee565b6040518080602001828103825283818151815260200191508051906020019080838360005b8381101561011c578082015181840152602081019050610101565b50505050905090810190601f1680156101495780820380516001836020036101000a031916815260200191505b509250505060405180910390f35b34801561016357600080fd5b506101906004803603602081101561017a57600080fd5b810190808035906020019092919050505061058c565b604051808581526020018473ffffffffffffffffffffffffffffffffffffffff168152602001806020018360028111156101c657fe5b8152602001828103825284818151815260200191508051906020019080838360005b838110156102035780820151818401526020810190506101e8565b50505050905090810190601f1680156102305780820380516001836020036101000a031916815260200191505b509550505050505060405180910390f35b610249610681565b005b34801561025757600080fd5b506102846004803603602081101561026e57600080fd5b81019080803590602001909291905050506108f3565b005b34801561029257600080fd5b5061029b610957565b6040518082815260200191505060405180910390f35b3480156102bd57600080fd5b506102c661095d565b6040518082815260200191505060405180910390f35b3480156102e857600080fd5b506102f16109a4565b6040518082815260200191505060405180910390f35b34801561031357600080fd5b5061031c6109aa565b6040518082815260200191505060405180910390f35b34801561033e57600080fd5b506103476109b0565b60405180821515815260200191505060405180910390f35b34801561036b57600080fd5b5061044f6004803603606081101561038257600080fd5b81019080803573ffffffffffffffffffffffffffffffffffffffff16906020019092919080359060200190929190803590602001906401000000008111156103c957600080fd5b8201836020820111156103db57600080fd5b803590602001918460018302840111640100000000831117156103fd57600080fd5b91908080601f016020809104026020016040519081016040528093929190818152602001838380828437600081840152601f19601f820116905080830192505050505050509192919290505050610a08565b005b34801561045d57600080fd5b506104aa6004803603604081101561047457600080fd5b81019080803573ffffffffffffffffffffffffffffffffffffffff16906020019092919080359060200190929190505050610e68565b005b3480156104b857600080fd5b506104c1611042565b6040518082815260200191505060405180910390f35b3480156104e357600080fd5b506104ec611048565b005b60008054600181600116156101000203166002900480601f0160208091040260200160405190810160405280929190818152602001828054600181600116156101000203166002900480156105845780601f1061055957610100808354040283529160200191610584565b820191906000526020600020905b81548152906001019060200180831161056757829003601f168201915b505050505081565b60066020528060005260406000206000915090508060000154908060010160009054906101000a900473ffffffffffffffffffffffffffffffffffffffff1690806002018054600181600116156101000203166002900480601f0160208091040260200160405190810160405280929190818152602001828054600181600116156101000203166002900480156106645780601f1061063957610100808354040283529160200191610664565b820191906000526020600020905b81548152906001019060200180831161064757829003601f168201915b5050505050908060030160009054906101000a900460ff16905084565b600160009054906101000a900473ffffffffffffffffffffffffffffffffffffffff1673ffffffffffffffffffffffffffffffffffffffff163373ffffffffffffffffffffffffffffffffffffffff1614156106dc57600080fd5b6000600760003373ffffffffffffffffffffffffffffffffffffffff1673ffffffffffffffffffffffffffffffffffffffff168152602001908152602001600020541461072857600080fd5b6002546004541061073857600080fd5b600354341461074657600080fd5b600460008154809291906001019190505550604051806080016040528060045481526020013373ffffffffffffffffffffffffffffffffffffffff168152602001604051806020016040528060008152508152602001600060028111156107a957fe5b8152506006600060045481526020019081526020016000206000820151816000015560208201518160010160006101000a81548173ffffffffffffffffffffffffffffffffffffffff021916908373ffffffffffffffffffffffffffffffffffffffff160217905550604082015181600201908051906020019061082e929190611133565b5060608201518160030160006101000a81548160ff0219169083600281111561085357fe5b0217905550905050600454600760003373ffffffffffffffffffffffffffffffffffffffff1673ffffffffffffffffffffffffffffffffffffffff168152602001908152602001600020819055503373ffffffffffffffffffffffffffffffffffffffff167f12661bd5f7645d5cb1c04c6143cd76ca797b38bc681aa3e0bd9b36552d8ad9aa6004546040518082815260200191505060405180910390a2565b600160009054906101000a900473ffffffffffffffffffffffffffffffffffffffff1673ffffffffffffffffffffffffffffffffffffffff163373ffffffffffffffffffffffffffffffffffffffff161461094d57600080fd5b8060038190555050565b60055481565b6000600760003373ffffffffffffffffffffffffffffffffffffffff1673ffffffffffffffffffffffffffffffffffffffff16815260200190815260200160002054905090565b60025481565b60035481565b6000600160009054906101000a900473ffffffffffffffffffffffffffffffffffffffff1673ffffffffffffffffffffffffffffffffffffffff163373ffffffffffffffffffffffffffffffffffffffff1614905090565b600160009054906101000a900473ffffffffffffffffffffffffffffffffffffffff1673ffffffffffffffffffffffffffffffffffffffff163373ffffffffffffffffffffffffffffffffffffffff1614610a6257600080fd5b81600760008573ffffffffffffffffffffffffffffffffffffffff1673ffffffffffffffffffffffffffffffffffffffff1681526020019081526020016000205414610aad57600080fd5b8273ffffffffffffffffffffffffffffffffffffffff166006600084815260200190815260200160002060010160009054906101000a900473ffffffffffffffffffffffffffffffffffffffff1673ffffffffffffffffffffffffffffffffffffffff1614610b1b57600080fd5b60006001830314610b6f57600280811115610b3257fe5b6006600060018503815260200190815260200160002060030160009054906101000a900460ff166002811115610b6457fe5b14610b6e57600080fd5b5b610b776111c1565b60066000848152602001908152602001600020604051806080016040529081600082015481526020016001820160009054906101000a900473ffffffffffffffffffffffffffffffffffffffff1673ffffffffffffffffffffffffffffffffffffffff1673ffffffffffffffffffffffffffffffffffffffff168152602001600282018054600181600116156101000203166002900480601f016020809104026020016040519081016040528092919081815260200182805460018160011615610100020316600290048015610c8e5780601f10610c6357610100808354040283529160200191610c8e565b820191906000526020600020905b815481529060010190602001808311610c7157829003601f168201915b505050505081526020016003820160009054906101000a900460ff166002811115610cb557fe5b6002811115610cc057fe5b815250509050600181606001906002811115610cd857fe5b90816002811115610ce557fe5b8152505081816040018190525080600660008581526020019081526020016000206000820151816000015560208201518160010160006101000a81548173ffffffffffffffffffffffffffffffffffffffff021916908373ffffffffffffffffffffffffffffffffffffffff1602179055506040820151816002019080519060200190610d73929190611133565b5060608201518160030160006101000a81548160ff02191690836002811115610d9857fe5b0217905550905050826005819055508373ffffffffffffffffffffffffffffffffffffffff167f7a92f09e545b6a09c4257013aa80ea1160129ffa64e003732fb637e98a2b24c784846040518083815260200180602001828103825283818151815260200191508051906020019080838360005b83811015610e27578082015181840152602081019050610e0c565b50505050905090810190601f168015610e545780820380516001836020036101000a031916815260200191505b50935050505060405180910390a250505050565b8060055414610e7657600080fd5b80600760008473ffffffffffffffffffffffffffffffffffffffff1673ffffffffffffffffffffffffffffffffffffffff1681526020019081526020016000205414610ec157600080fd5b8173ffffffffffffffffffffffffffffffffffffffff166006600083815260200190815260200160002060010160009054906101000a900473ffffffffffffffffffffffffffffffffffffffff1673ffffffffffffffffffffffffffffffffffffffff1614610f2f57600080fd5b60016002811115610f3c57fe5b6006600083815260200190815260200160002060030160009054906101000a900460ff166002811115610f6b57fe5b14610f7557600080fd5b60026006600083815260200190815260200160002060030160006101000a81548160ff02191690836002811115610fa857fe5b0217905550600760008373ffffffffffffffffffffffffffffffffffffffff1673ffffffffffffffffffffffffffffffffffffffff168152602001908152602001600020600090558173ffffffffffffffffffffffffffffffffffffffff167f604714a610b43dcf88d84478117c0d33db9ac4c56295167e89c77b0bc3b5d9be826040518082815260200191505060405180910390a25050565b60045481565b600160009054906101000a900473ffffffffffffffffffffffffffffffffffffffff1673ffffffffffffffffffffffffffffffffffffffff163373ffffffffffffffffffffffffffffffffffffffff16146110a257600080fd5b600554600454146110b257600080fd5b600160009054906101000a900473ffffffffffffffffffffffffffffffffffffffff1673ffffffffffffffffffffffffffffffffffffffff166108fc600454600354029081150290604051600060405180830381858888f19350505050158015611120573d6000803e3d6000fd5b5060006004819055506000600581905550565b828054600181600116156101000203166002900490600052602060002090601f01602090048101928261116957600085556111b0565b82601f1061118257805160ff19168380011785556111b0565b828001600101855582156111b0579182015b828111156111af578251825591602001919060010190611194565b5b5090506111bd919061120a565b5090565b604051806080016040528060008152602001600073ffffffffffffffffffffffffffffffffffffffff168152602001606081526020016000600281111561120457fe5b81525090565b5b8082111561122357600081600090555060010161120b565b509056fea264697066735822122041d291a85bab19ae1483570f208a5171f9796fbbaca45eb4f6c75d17be7b4c9c64736f6c63430007040033",
  "immutableReferences": {},
  "source": "// SPDX-License-Identifier: AJH\r\npragma solidity ^0.7.4;\r\n\r\ncontract Appointment{\r\n\r\n    string public name = \"Doctor's Appointment\"; \r\n    \r\n    address payable owner;\r\n\r\n    uint public maxAppointments;\r\n    uint public fees;\r\n    uint public appointmentCount;\r\n    uint public currentSlotInProcess;\r\n\r\n    mapping(uint => AllocatedSlot) public appointments;\r\n    mapping(address => uint) private isAppointed;\r\n\r\n    enum SlotStatus {OPEN, INPROCESS, COMPLETE}\r\n\r\n    struct AllocatedSlot{\r\n        uint slot;\r\n        address patient; \r\n        string zoomLink;\r\n        SlotStatus status;\r\n    }\r\n\r\n    event CreateAppointment(\r\n        address indexed paitent,\r\n        uint slot \r\n    );\r\n\r\n    event MarkedInProgress(\r\n        address indexed patient,\r\n        uint slot, \r\n        string zoomLink\r\n    );\r\n\r\n    event CloseAppointment(\r\n        address indexed paitent,\r\n        uint slot \r\n    );\r\n \r\n    modifier restricted(){\r\n        require(msg.sender == owner);\r\n        _;\r\n    }\r\n\r\n    constructor(uint _maxAppointments, uint _fees){\r\n        owner = msg.sender;\r\n        maxAppointments = _maxAppointments;\r\n        fees = _fees;\r\n    }\r\n\r\n    function setfees(uint _fees) public restricted{\r\n        fees = _fees;\r\n    }\r\n\r\n    function isAdmin() public view returns(bool){ \r\n        return (msg.sender == owner);\r\n    }\r\n\r\n    function createAppointment() public payable {\r\n        require(msg.sender != owner);\r\n        require(isAppointed[msg.sender] == 0); \r\n        require(appointmentCount < maxAppointments);\r\n        require(msg.value == fees);\r\n\r\n        appointmentCount++;\r\n        appointments[appointmentCount] = AllocatedSlot(appointmentCount, msg.sender, '', SlotStatus.OPEN);\r\n        isAppointed[msg.sender] = appointmentCount;\r\n\r\n        emit CreateAppointment(msg.sender, appointmentCount);\r\n \r\n    }\r\n    \r\n    function getSlot() public view returns(uint){ \r\n        return isAppointed[msg.sender];\r\n    }\r\n\r\n    function markInProgress(address _patient, uint _slot, string memory _zoomLink) public restricted{\r\n        require(isAppointed[_patient] == _slot); \r\n        require(appointments[_slot].patient == _patient);\r\n        if(_slot-1 != 0){\r\n            require(appointments[_slot-1].status == SlotStatus.COMPLETE);\r\n        }\r\n\r\n        AllocatedSlot memory _allocatedSlot = appointments[_slot];\r\n        _allocatedSlot.status = SlotStatus.INPROCESS;\r\n        _allocatedSlot.zoomLink = _zoomLink;\r\n        appointments[_slot] = _allocatedSlot;\r\n        currentSlotInProcess = _slot;\r\n\r\n        emit MarkedInProgress(_patient, _slot, _zoomLink);\r\n    }\r\n\r\n    function closeAppointment(address _patient,uint _slot) public{\r\n        require(currentSlotInProcess == _slot); \r\n        require(isAppointed[_patient] == _slot); \r\n        require(appointments[_slot].patient == _patient);\r\n        require(appointments[_slot].status == SlotStatus.INPROCESS);\r\n\r\n        appointments[_slot].status = SlotStatus.COMPLETE;\r\n        delete isAppointed[_patient];\r\n        // delete appointments[_slot];\r\n        // appointmentCount --;\r\n\r\n        emit CloseAppointment(_patient, _slot);\r\n    }\r\n\r\n    function completeAppointments() public restricted{\r\n        require(appointmentCount == currentSlotInProcess);\r\n        owner.transfer(fees*appointmentCount);\r\n        appointmentCount = 0;\r\n        currentSlotInProcess = 0;\r\n    }\r\n \r\n}",
  "sourcePath": "D:/Learnings/Ethereum/Portfolio/DocTokens/eth-doc-react/src/contracts/Appointment.sol",
  "compiler": {
    "name": "solc",
    "version": "0.7.4+commit.3f05b770.Emscripten.clang"
  },
  "schemaVersion": "3.3.3",
  "updatedAt": "2021-02-17T06:52:34.474Z",
  "networkType": "ethereum",
  "devdoc": {
    "kind": "dev",
    "methods": {},
    "version": 1
  },
  "userdoc": {
    "kind": "user",
    "methods": {},
    "version": 1
  }
}